S0120000737069206D61737465722E737265631A
S11300000C942A000C9434000C9434000C943400A6
S11300100C9434000C9434000C9434000C9434008C
S11300200C9434000C9434000C9434000C9434007C
S11300300C9434000C9434000C9434000C9434006C
S11300400C9434000C9434000C9434000C9434005C
S11300500C94340011241FBECFE5D8E0DEBFCDBF21
S11300600E9436000C9459000C9400008FEF84BB5E
S113007080EB87BB80E58DB91EB815BA8AEA8FB9C3
S1130080779BFECF2FEF89E698E121508040904086
S1130090E1F700C0000085E58FB9779BFECF2FEF15
S11300A089E698E1215080409040E1F700C00000CB
S10900B0E4CFF894FFCF39
S9030000FC
