:100000000C942A000C943F000C943F000C943F0089
:100010000C943F000C943F000C943F000C943F0064
:100020000C943F000C943F000C943F000C943F0054
:100030000C943F000C943F000C943F000C943F0044
:100040000C943F000C943F000C943F000C943F0034
:100050000C943F0011241FBECFE5D8E0DEBFCDBF1A
:1000600010E0A0E6B0E0E4E2F1E002C005900D92FD
:10007000A636B107D9F70E946C000C9490000C943E
:10008000000082BB82E085BB2FEF84E39CE021501F
:1000900080409040E1F700C0000015BA089582BB8F
:1000A00083E085BB2FEF84E39CE0215080409040AB
:1000B000E1F700C0000081E085BB0895CF93DF9396
:1000C000EC0104C090E00E944F00219688818111CC
:1000D000F9CFDF91CF9108958FEF81BB84BB88E387
:1000E00090E00E94410081E090E00E94410080EC9D
:1000F00090E00E94410086E090E00E9441008EE086
:1001000090E00E94410081E690E00E944F0087EC61
:1001100090E00E94410080E690E00E945E00FFCFE8
:04012000F894FFCF81
:0601240068656C6C6F00C1
:00000001FF
