:020000040000FA
:0400000085EF04F094
:0B0600000050617373776F726400009C
:10060C000E0E8A6E81CF08F0F00E081608500A6E96
:10061C000B6A1DEF03F0310EE2EF03F0320EE2EF46
:10062C0003F0330EE2EF03F0340EE2EF03F00AC0F6
:10063C0008F00BC009F00950000AD8B428EF03F0F9
:10064C003BEF03F00850700AD8B41AEF03F0C00A5D
:10065C00D8B417EF03F0600AD8B414EF03F0300AE3
:10066C00D8B411EF03F03BEF03F00D0E8A6E81CF7F
:10067C0008F0F00E081608500A6E0B6A52EF03F0E1
:10068C00350EE2EF03F0360EE2EF03F0370EE2EF39
:10069C0003F0380EE2EF03F00AC008F00BC009F0CB
:1006AC000950000AD8B45DEF03F070EF03F0085066
:1006BC00700AD8B44FEF03F0C00AD8B44CEF03F073
:1006CC00600AD8B449EF03F0300AD8B446EF03F00F
:1006DC0070EF03F00B0E8A6E81CF08F0F00E081647
:1006EC0008500A6E0B6A87EF03F0390EE2EF03F045
:1006FC00410EE2EF03F0420EE2EF03F0430EE2EFA5
:10070C0003F00AC008F00BC009F00950000AD8B475
:10071C0092EF03F0A5EF03F00850700AD8B484EF01
:10072C0003F0C00AD8B481EF03F0600AD8B47EEFAE
:10073C0003F0300AD8B47BEF03F0A5EF03F0070EFB
:10074C008A6E81CF08F0F00E081608500A6E0B6AFC
:10075C00BCEF03F0440EE2EF03F0450EE2EF03F0C2
:10076C00460EE2EF03F0470EE2EF03F00AC008F08A
:10077C000BC009F00950000AD8B4C7EF03F0DAEF48
:10078C0003F00850700AD8B4B9EF03F0C00AD8B41B
:10079C00B6EF03F0600AD8B4B3EF03F0300AD8B464
:1007AC00B0EF03F0DAEF03F0000E026EFA0E016EFA
:1007BC00E3EC03F006EF03F01200000E056E000EE2
:1007CC00046E02EF04F0000E076E000E066EF1EFE1
:1007DC0003F0064A072A0150065C0750800A036E94
:1007EC000250800A0358D8A0FEEF03F000EF04F08B
:1007FC00EFEF03F0044A052A0150045C0550800A0F
:10080C00036E0250800A0358D8A00FEF04F011EFCA
:10081C0004F0E9EF03F01200F00E936E000E956EEB
:10082C00000E946E0F0EC16E32EC04F0010E096EC8
:10083C00060E0A6E51EC04F0000E096EC10E086E25
:10084C0079EC04F006EC03F00C6E0C506CEC04F03C
:10085C0028EF04F000EF00F0000E096E380E086E61
:10086C0079EC04F0000E096E010E086E79EC04F0C0
:10087C00000E096E060E086E79EC04F0000E096E7F
:10088C000E0E086E79EC04F0000E096E800E086EE8
:10089C0079EC04F012005DEF04F009C0F6FF0AC019
:1008AC00F7FF0800F5506CEC04F0094A0A2A09C05D
:1008BC00F6FF0AC0F7FF0800F5500009D8A469EF4D
:1008CC0004F06BEF04F053EF04F01200086E08C054
:1008DC008CFF82808282000E026EFA0E016EE3ECB7
:1008EC0003F08292120008C08CFF82908282000E6C
:1008FC00026EFA0E016EE3EC03F082921200000E0F
:08090C00F86E000112EF04F087
:020000040020DA
:08000000FFFFFFFFFFFFFFFF00
:020000040030CA
:0E000000FF071F1FFF8285FF0FC00FE00F409C
:00000001FF
