S01B00007561727470726F6772616D73746172686173682E73726563F7
S11300000C942A000C943F000C943F000C943F0085
S11300100C943F000C943F000C943F000C943F0060
S11300200C943F000C943F000C943F000C943F0050
S11300300C943F000C943F000C943F000C943F0040
S11300400C943F000C943F000C943F000C943F0030
S11300500C943F0011241FBECFE5D8E0DEBFCDBF16
S113006010E0A0E6B0E0E4E8F1E002C005900D92F3
S1130070A23AB107D9F70E9465000C94C0000C9411
S113008000001BB888E18AB986E080BD10BC87E611
S113009089B908955F9BFECF8CB108958CB95E9B9E
S11300A0FECF8FE39CE90197F1F700C000000895AB
S11300B0CF93DF93EC0103C00E944E002196888108
S11300C08111FACFDF91CF910895CF93DF93CDB70C
S11300D0DEB762970FB6F894DEBF0FBECDBF88E0DF
S11300E0EAE9F0E0DE011B9601900D928A95E1F7B2
S11300F00E94410081E40E944E0080E690E00E944C
S113010058008DE00E944E000E944A008A32E1F7B6
S113011000E010E00E944A00E1E0F0E0EC0FFD1F77
S1130120E00FF11F8083833221F00F5F1F4F833272
S113013089F7E1E0F0E0EC0FFD1FE00FF11F108202
S1130140BE01655F7F4FCE0101960E94B700892BE7
S113015049F48BE690E00E945800CE0101960E947B
S11301605800D2CF83E890E00E945800CDCFFB0125
S1130170DC018D91019080190110D9F3990B089538
S1070180F894FFCF1D
S113018448656C6C6F203230323000555345522030
S1130194414343455353204752414E54454421213E
S11301A4210D000D555345522041434345535320DB
S11301B444454E4945442121210070617373313211
S10501C4330002
S9030000FC
