:100000000C942A000C9434000C9434000C943400AA
:100010000C9434000C9434000C9434000C94340090
:100020000C9434000C9434000C9434000C94340080
:100030000C9434000C9434000C9434000C94340070
:100040000C9434000C9434000C9434000C94340060
:100050000C94340011241FBECFE5D8E0DEBFCDBF25
:100060000E9436000C9441000C94000080E487BB91
:100070009FEF94BB8DB91EB8779BFECF8FB185BB28
:06008000FBCFF894FFCF56
:00000001FF
