:04000000AEEF3FF030
:107F5C00000E946E2D0E8B6EB7EC3FF0FBD700EF3E
:107F6C0000F0000E00010001FC6F000E0001FD6F1F
:107F7C0000010001FD51800A7F0FF50ED8B4FC5DA5
:107F8C00D8A001D001D001D034D0000E00010001E6
:107F9C00FE6F000E0001FF6F00010001FF51800A0F
:107FAC007F0FF50ED8B4FE5DD8A001D001D001D062
:107FBC0010D000010001FE4BFF2B00010001FF510E
:107FCC00800A7F0FF50ED8B4FE5DD8A001D001D089
:107FDC00F0D700010001FC4BFD2B00010001FD510D
:107FEC00800A7F0FF50ED8B4FC5DD8A001D001D06B
:047FFC00CCD71200CC
:00000001FF
