:0400000092EF3FF04C
:107F2400000E956E800E8C6EB7EC3FF0400E8C6E9A
:107F3400B7EC3FF0200E8C6EB7EC3FF0100E8C6E59
:107F4400B7EC3FF0080E8C6EB7EC3FF0040E8C6E6D
:107F5400B7EC3FF0020E8C6EB7EC3FF0010E8C6E66
:107F6400B7EC3FF0DFD700EF00F0000E0001000196
:107F7400FC6F000E0001FD6F00010001FD51800A3D
:107F84007F0FF40ED8B4FC5DD8A001D001D001D08D
:107F940034D0000E00010001FE6F000E0001FF6FDF
:107FA40000010001FF51800A7F0FF40ED8B4FE5D7A
:107FB400D8A001D001D001D010D000010001FE4BA7
:107FC400FF2B00010001FF51800A7F0FF40ED8B48B
:107FD400FE5DD8A001D001D0F0D700010001FC4B18
:107FE400FD2B00010001FD51800A7F0FF40ED8B46F
:0C7FF400FC5DD8A001D001D0CCD7120059
:00000001FF
