:0400000085EF3FF059
:107F0A00000E956E010E8C6EB7EC3FF0000E00016C
:107F1A000001FA6F000E0001FB6F00010001FB5126
:107F2A00800A800F080ED8B4FA5DD8A001D001D01B
:107F3A0001D015D08C508C248C6EB7EC3FF0000128
:107F4A000001FA4BFB2B00010001FB51800A800F54
:107F5A00080ED8B4FA5DD8A001D001D0EBD7D2D799
:107F6A0000EF00F0000E00010001FC6F000E00019E
:107F7A00FD6F00010001FD51800A7F0FF40ED8B495
:107F8A00FC5DD8A001D001D001D010D000010001C1
:107F9A00FC4BFD2B00010001FD51800A7F0FF40EFE
:107FAA00D8B4FC5DD8A001D001D0F0D7000E0001F2
:107FBA000001FE6F000E0001FF6F00010001FF517A
:107FCA00800A7F0FF40ED8B4FE5DD8A001D001D08C
:107FDA0001D010D000010001FE4BFF2B000100016F
:107FEA00FF51800A7F0FF40ED8B4FE5DD8A001D0ED
:067FFA0001D0F0D71200D7
:00000001FF
