:04000000A2EF3FF03C
:107EB200000E00010001FC6F000E0001FD6F0001C9
:107EC2000001FD51800A7F0FF50ED8B4FC5DD8A0E9
:107ED20001D001D001D034D0000E00010001FE6FAC
:107EE200000E0001FF6F00010001FF51800A7F0FA9
:107EF200F50ED8B4FE5DD8A001D001D001D010D0CB
:107F020000010001FE4BFF2B00010001FF51800A1E
:107F12007F0FF50ED8B4FE5DD8A001D001D0F0D706
:107F220000010001FC4BFD2B00010001FD51800A04
:107F32007F0FF50ED8B4FC5DD8A001D001D0CCD70C
:107F42001200010E946E000E956E82B001D001D027
:107F520008D0000E8C6E59EC3FF08C6859EC3FF063
:107F62004BD082B201D001D009D0F00E8C6E59EC08
:107F72003FF00F0E8C6E59EC3FF03ED082B401D030
:107F820001D009D0550E8C6E59EC3FF0AA0E8C6EC2
:107F920059EC3FF031D082B601D001D02DD0010E84
:107FA2008C6E59EC3FF0000E00010001FA6F000EDA
:107FB2000001FB6F00010001FB51800A800F080ED7
:107FC200D8B4FA5DD8A001D001D001D015D08C5020
:107FD2008C248C6E59EC3FF000010001FA4BFB2B14
:107FE20000010001FB51800A800F080ED8B4FA5D2F
:0E7FF200D8A001D001D0EBD7A8D700EF00F047
:00000001FF
