:100000000C942A000C9434000C9434000C943400AA
:100010000C9434000C9434000C9434000C94340090
:100020000C9434000C9434000C9434000C94340080
:100030000C9434000C9434000C9434000C94340070
:100040000C9434000C9434000C9434000C94340060
:100050000C94340011241FBECFE5D8E0DEBFCDBF25
:100060000E9436000C9465000C94000088E480B96E
:1000700084EA86BF81B18830E9F780E783B984E8F4
:1000800086BF81B18831E9F78AEA83B984E886BFFF
:1000900081B18832E9F72FEF89E698E1215080405D
:1000A0009040E1F700C0000085E583B984E886BF91
:1000B00081B18832E9F72FEF89E698E1215080403D
:0E00C0009040E1F700C00000DFCFF894FFCFC2
:00000001FF
