:100000000C942A000C943F000C943F000C943F0089
:100010000C943F000C943F000C943F000C943F0064
:100020000C943F000C943F000C943F000C943F0054
:100030000C943F000C943F000C943F000C943F0044
:100040000C943F000C943F000C943F000C943F0034
:100050000C943F0011241FBECFE5D8E0DEBFCDBF1A
:1000600010E0A0E6B0E0EEEDF0E002C005900D92E9
:10007000A836B107D9F70E9461000C946D000C946A
:1000800000001BB888E18AB986E080BD10BC87E615
:1000900089B908958CB95E9BFECF8FE39CE90197E7
:1000A000F1F700C000000895CF93DF93EC0103C087
:1000B0000E944A00219688818111FACFDF91CF9169
:1000C00008950E94410081E40E944A0080E690E089
:0E00D0000E94540080E090E00895F894FFCF65
:0800DE0057656C636F6D65004E
:00000001FF
