:100000000C942A000C9434000C9434000C943400AA
:100010000C9434000C9434000C9434000C94340090
:100020000C9434000C9434000C9434000C94340080
:100030000C9434000C9434000C9434000C94340070
:100040000C9434000C9434000C9434000C94340060
:100050000C94340011241FBECFE5D8E0DEBFCDBF25
:100060000E9436000C944E000C9400008FEF87BB6A
:1000700089E683BF12BE80E090E00BC08CBF2FEFFB
:1000800039EF40E0215030404040E1F700C000002F
:1000900001968F3F910591F38CF3EDCFF894FFCF4C
:00000001FF
