S00E00006932636C63642E73726563E5
S11300000C942A000C9434000C9434000C943400A6
S11300100C9434000C9434000C9434000C9434008C
S11300200C9434000C9434000C9434000C9434007C
S11300300C9434000C9434000C9434000C9434006C
S11300400C9434000C9434000C9434000C9434005C
S11300500C94340011241FBECFE5D8E0DEBFCDBF21
S11300600E9453000C9496000C94000088E480B91C
S113007011B884EA86BF81B18830E9F7089583B95D
S113008084E886BF81B18832E9F7089583B984E8AA
S113009086BF81B18831E9F7089584EA86BF81B1CA
S11300A08031E9F708950E94360080E790E00E94CD
S11300B046008AEA90E00E943F002FEF89E698E12B
S11300C0215080409040E1F700C0000085E590E0B9
S11300D00E943F002FEF89E698E121508040904034
S11300E0E1F700C000000E944D008EE790E00E94FE
S11300F046008FEA90E00E943F002FEF89E698E1E6
S1130100215080409040E1F700C0000085EF90E06E
S11301100E943F002FEF89E698E1215080409040F3
S1130120E1F700C000000E944D00C3CFF894FFCF58
S9030000FC
