S00F00006C6364346269742E737265636F
S11300000C942A000C943F000C943F000C943F0085
S11300100C943F000C943F000C943F000C943F0060
S11300200C943F000C943F000C943F000C943F0050
S11300300C943F000C943F000C943F000C943F0040
S11300400C943F000C943F000C943F000C943F0030
S11300500C943F0011241FBECFE5D8E0DEBFCDBF16
S113006010E0A0E6B0E0E0E7F1E002C005900D92F8
S1130070A636B107D9F70E948E000C94B6000C94F2
S113008000009C01207F332722BB92E095BB2FEF19
S113009034E34CE0215030404040E1F700C0000020
S11300A015BA8295807F82BB95BB8FEF94E32CE0D9
S11300B0815090402040E1F700C0000015BA089537
S11300C09C01207F332722BB23E025BB3FEF44E381
S11300D05CE0315040405040E1F700C0000091E046
S11300E095BB8295807F82BB25BB8FEF24E33CE0E8
S11300F0815020403040E1F700C0000095BB0895D6
S1130100CF93DF93EC0104C090E00E94600021963D
S113011088818111F9CFDF91CF9108958FEF81BB51
S113012084BB82E090E00E94410088E290E00E945B
S1130130410086E090E00E9441008EE090E00E9441
S1130140410081E090E00E94410080E890E00E943C
S1130150410081E690E00E94600087EC90E00E94FC
S1130160410080E690E00E948000FFCFF894FFCF2A
S109017068656C6C6F0071
S9030000FC
