:100000000C942A000C943F000C943F000C943F0089
:100010000C943F000C943F000C943F000C943F0064
:100020000C943F000C943F000C943F000C943F0054
:100030000C943F000C943F000C943F000C943F0044
:100040000C943F000C943F000C943F000C943F0034
:100050000C943F0011241FBECFE5D8E0DEBFCDBF1A
:1000600010E0A0E6B0E0E6EFF1E002C005900D92EE
:10007000AA36B107D9F70E94E5000C94F9000C9458
:1000800000008EE088BB86B3807F803B59F018F477
:10009000803751F00BC0803D09F450C0803E09F418
:1000A0004BC004C083E3089584E308958DE088BBCA
:1000B00086B3807F803B51F018F4803749F00AC046
:1000C000803DF1F1803E31F485E3089587E30895A2
:1000D00088E308958BE088BB86B3807F803B51F036
:1000E00018F4803749F00AC0803D61F1803E31F458
:1000F00089E3089582E4089583E4089587E088BB46
:1001000086B3807F803B51F018F4803749F00AC0F5
:10011000803DD1F0803E31F484E4089586E4089572
:1001200087E408952FEF84E39CE0215080409040C5
:10013000E1F700C00000A5CF81E3089582E30895B0
:1001400086E3089581E4089585E4089582BB82E002
:1001500085BB2FEF84E39CE0215080409040E1F785
:1001600000C0000015BA089588E390E00E94A60040
:1001700081E090E00E94A60086E090E00E94A60048
:100180008EE090E00E94A60080E890E00E94A60029
:10019000089582BB83E085BB2FEF84E39CE0215070
:1001A00080409040E1F700C0000081E085BB0895E9
:1001B000CF93DF93EC0103C00E94C9002196888190
:1001C0008111FACFDF91CF9108958FE087BB8FEF38
:1001D00081BB84BB0E94B40080E690E00E94D800FE
:1001E00081EC90E00E94A6000E9441000E94C9009C
:0601F000FBCFF894FFCFE5
:0A01F60050617373776F72640000AC
:00000001FF
