:020000040000FA
:04000000B2EF3FF02C
:107F64000001B5EF3FF0180E946E000E956E800E72
:107F7400C76E240EC66E9EA6C2EF3FF0C4EF3FF05C
:107F8400BDEF3FF09E96C9CF83FF010E026EF40E43
:107F9400016ED1EC3FF0BDEF3FF000EF00F0000EBA
:107FA400056E000E046EF0EF3FF0000E076E000E3B
:107FB400066EDFEF3FF0064A072A0150065C0750C1
:107FC400800A036E0250800A0358D8A0ECEF3FF0F9
:107FD400EEEF3FF0DDEF3FF0044A052A0150045C68
:107FE4000550800A036E0250800A0358D8A0FDEFA2
:0C7FF4003FF0FFEF3FF0D7EF3FF012002E
:020000040020DA
:08000000FFFFFFFFFFFFFFFF00
:020000040030CA
:0E000000FF071F1FFF8285FF0FC00FE00F409C
:00000001FF
